:0A00E20000065B4F666D7D077F6F1F
:0600030001080A010914C6
:1000CF00758901758C4CE4F58AF590D2AFD2A9D21F
:0300DF008C80FE14
:03000B0002009A56
:10009A00C0E0C083C082C0D0758C4C758A00150937
:1000AA00E509D394005015750914E50B450A700249
:1000BA00F5901508E5089000E293F580D0D0D0823B
:0500CA00D083D0E032FC
:0300000002000EED
:0C000E00787FE4F6D8FD75810B020055E8
:10001A000200CFE493A3F8E493A34003F68001F22D
:10002A0008DFF48029E493A3F85407240CC8C333E7
:10003A00C4540F4420C8834004F456800146F6DFB6
:10004A00E4800B0102040810204080900003E47E43
:10005A00019360BCA3FF543F30E509541FFEE493AB
:10006A00A360010ECF54C025E060A840B8E493A372
:10007A00FAE493A3F8E493A3C8C582C8CAC583CA9D
:10008A00F0A3C8C582C8CAC583CADFE9DEE780BE55
:0100090000F6
:00000001FF
